{
  "address": "0xCf7Ed3AccA5a467e9e704C703E8D87F634fB0Fc9",
  "abi": [
    {
      "inputs": [
        {
          "internalType": "address",
          "name": "vrfCoordinatorV2",
          "type": "address"
        },
        {
          "internalType": "bytes32",
          "name": "keyHash",
          "type": "bytes32"
        },
        {
          "internalType": "uint256",
          "name": "entranceFee",
          "type": "uint256"
        },
        {
          "internalType": "uint64",
          "name": "subId",
          "type": "uint64"
        },
        {
          "internalType": "uint32",
          "name": "callBackGaslimit",
          "type": "uint32"
        },
        {
          "internalType": "uint256",
          "name": "interval",
          "type": "uint256"
        }
      ],
      "stateMutability": "nonpayable",
      "type": "constructor"
    },
    {
      "inputs": [
        {
          "internalType": "address",
          "name": "have",
          "type": "address"
        },
        {
          "internalType": "address",
          "name": "want",
          "type": "address"
        }
      ],
      "name": "OnlyCoordinatorCanFulfill",
      "type": "error"
    },
    {
      "inputs": [],
      "name": "Raffle__NotOpened",
      "type": "error"
    },
    {
      "inputs": [],
      "name": "Raffle__TransferFailed",
      "type": "error"
    },
    {
      "inputs": [
        {
          "internalType": "uint256",
          "name": "currentBalance",
          "type": "uint256"
        },
        {
          "internalType": "uint256",
          "name": "participants",
          "type": "uint256"
        },
        {
          "internalType": "uint256",
          "name": "raffleState",
          "type": "uint256"
        }
      ],
      "name": "Raffle__UpKeepNotNeeded",
      "type": "error"
    },
    {
      "inputs": [],
      "name": "enterRaffle__insufficientAmount",
      "type": "error"
    },
    {
      "anonymous": false,
      "inputs": [
        {
          "indexed": true,
          "internalType": "address",
          "name": "participant",
          "type": "address"
        }
      ],
      "name": "RaffleEnter",
      "type": "event"
    },
    {
      "anonymous": false,
      "inputs": [
        {
          "indexed": true,
          "internalType": "uint256",
          "name": "requestId",
          "type": "uint256"
        }
      ],
      "name": "requestedRaffles_winner",
      "type": "event"
    },
    {
      "anonymous": false,
      "inputs": [
        {
          "indexed": true,
          "internalType": "address",
          "name": "recents_winner",
          "type": "address"
        }
      ],
      "name": "s_winnerPicked",
      "type": "event"
    },
    {
      "inputs": [
        {
          "internalType": "bytes",
          "name": "",
          "type": "bytes"
        }
      ],
      "name": "checkUpkeep",
      "outputs": [
        {
          "internalType": "bool",
          "name": "upkeepNeeded",
          "type": "bool"
        },
        {
          "internalType": "bytes",
          "name": "",
          "type": "bytes"
        }
      ],
      "stateMutability": "view",
      "type": "function"
    },
    {
      "inputs": [],
      "name": "enterRaffle",
      "outputs": [],
      "stateMutability": "payable",
      "type": "function"
    },
    {
      "inputs": [],
      "name": "getEntranceFee",
      "outputs": [
        {
          "internalType": "uint256",
          "name": "",
          "type": "uint256"
        }
      ],
      "stateMutability": "view",
      "type": "function"
    },
    {
      "inputs": [],
      "name": "getInterval",
      "outputs": [
        {
          "internalType": "uint256",
          "name": "",
          "type": "uint256"
        }
      ],
      "stateMutability": "view",
      "type": "function"
    },
    {
      "inputs": [],
      "name": "getKeyHash",
      "outputs": [
        {
          "internalType": "bytes32",
          "name": "",
          "type": "bytes32"
        }
      ],
      "stateMutability": "view",
      "type": "function"
    },
    {
      "inputs": [
        {
          "internalType": "uint256",
          "name": "index",
          "type": "uint256"
        }
      ],
      "name": "getParticipant",
      "outputs": [
        {
          "internalType": "address",
          "name": "",
          "type": "address"
        }
      ],
      "stateMutability": "view",
      "type": "function"
    },
    {
      "inputs": [],
      "name": "getParticipantNumbers",
      "outputs": [
        {
          "internalType": "uint256",
          "name": "",
          "type": "uint256"
        }
      ],
      "stateMutability": "view",
      "type": "function"
    },
    {
      "inputs": [],
      "name": "getPreviousTimestampt",
      "outputs": [
        {
          "internalType": "uint256",
          "name": "",
          "type": "uint256"
        }
      ],
      "stateMutability": "view",
      "type": "function"
    },
    {
      "inputs": [],
      "name": "getRaffleState",
      "outputs": [
        {
          "internalType": "enum Raffle.RaffleState",
          "name": "",
          "type": "uint8"
        }
      ],
      "stateMutability": "view",
      "type": "function"
    },
    {
      "inputs": [],
      "name": "getVrfCoordinator",
      "outputs": [
        {
          "internalType": "contract VRFCoordinatorV2Interface",
          "name": "",
          "type": "address"
        }
      ],
      "stateMutability": "view",
      "type": "function"
    },
    {
      "inputs": [],
      "name": "gets_winner",
      "outputs": [
        {
          "internalType": "address",
          "name": "",
          "type": "address"
        }
      ],
      "stateMutability": "view",
      "type": "function"
    },
    {
      "inputs": [
        {
          "internalType": "bytes",
          "name": "",
          "type": "bytes"
        }
      ],
      "name": "performUpkeep",
      "outputs": [],
      "stateMutability": "nonpayable",
      "type": "function"
    },
    {
      "inputs": [
        {
          "internalType": "uint256",
          "name": "requestId",
          "type": "uint256"
        },
        {
          "internalType": "uint256[]",
          "name": "randomWords",
          "type": "uint256[]"
        }
      ],
      "name": "rawFulfillRandomWords",
      "outputs": [],
      "stateMutability": "nonpayable",
      "type": "function"
    },
    {
      "inputs": [
        {
          "internalType": "uint256",
          "name": "",
          "type": "uint256"
        }
      ],
      "name": "s_participants",
      "outputs": [
        {
          "internalType": "address payable",
          "name": "",
          "type": "address"
        }
      ],
      "stateMutability": "view",
      "type": "function"
    }
  ],
  "transactionHash": "0xb3c25f3567e9a765f96c46a57b602edb72d19835ffe2fcdad148a197c3be901e",
  "args": [
    "0x5FbDB2315678afecb367f032d93F642f64180aa3",
    "0x474e34a077df58807dbe9c96d3c009b23b3c6d0cce433e59bbf5b34f823bc56c",
    "10000000000000000",
    "1",
    "500000",
    "30"
  ],
  "numDeployments": 1,
  "solcInputHash": "54dc8fcfde8eed73e910a422ee0e5e8f",
  "bytecode": "0x6101606040523480156200001257600080fd5b5060405162001a7538038062001a75833981810160405281019062000038919062000294565b858073ffffffffffffffffffffffffffffffffffffffff1660808173ffffffffffffffffffffffffffffffffffffffff1681525050508361010081815250508573ffffffffffffffffffffffffffffffffffffffff166101208173ffffffffffffffffffffffffffffffffffffffff16815250508460c081815250508267ffffffffffffffff1660e08167ffffffffffffffff16815250508163ffffffff1660a08163ffffffff16815250508061014081815250506000600260006101000a81548160ff0219169083600181111562000116576200011562000330565b5b0217905550426001819055505050505050506200035f565b600080fd5b600073ffffffffffffffffffffffffffffffffffffffff82169050919050565b6000620001608262000133565b9050919050565b620001728162000153565b81146200017e57600080fd5b50565b600081519050620001928162000167565b92915050565b6000819050919050565b620001ad8162000198565b8114620001b957600080fd5b50565b600081519050620001cd81620001a2565b92915050565b6000819050919050565b620001e881620001d3565b8114620001f457600080fd5b50565b6000815190506200020881620001dd565b92915050565b600067ffffffffffffffff82169050919050565b6200022d816200020e565b81146200023957600080fd5b50565b6000815190506200024d8162000222565b92915050565b600063ffffffff82169050919050565b6200026e8162000253565b81146200027a57600080fd5b50565b6000815190506200028e8162000263565b92915050565b60008060008060008060c08789031215620002b457620002b36200012e565b5b6000620002c489828a0162000181565b9650506020620002d789828a01620001bc565b9550506040620002ea89828a01620001f7565b9450506060620002fd89828a016200023c565b93505060806200031089828a016200027d565b92505060a06200032389828a01620001f7565b9150509295509295509295565b7f4e487b7100000000000000000000000000000000000000000000000000000000600052602160045260246000fd5b60805160a05160c05160e051610100516101205161014051611691620003e4600039600081816106ea0152818161077e015261082b01526000818161037a0152610b5401526000818161035201526104ca01526000610bb101526000818161063b0152610b9001526000610bd401526000818161040a015261045e01526116916000f3fe6080604052600436106100dd5760003560e01c8063331bf1251161007f5780636e04ff0d116100595780636e04ff0d1461027d5780638df5a6a4146102bb57806391ad27b4146102f8578063aa2130e114610323576100dd565b8063331bf125146101fe5780634585e33b1461022957806369d8ebf914610252576100dd565b806315ac565f116100bb57806315ac565f146101635780631b9db2ef1461018e5780631fe543e3146101cb5780632cfcc539146101f4576100dd565b806309bc33a7146100e25780630cb4a29d1461010d578063115cbaf514610138575b600080fd5b3480156100ee57600080fd5b506100f761034e565b6040516101049190610d4a565b60405180910390f35b34801561011957600080fd5b50610122610376565b60405161012f9190610de4565b60405180910390f35b34801561014457600080fd5b5061014d61039e565b60405161015a9190610e76565b60405180910390f35b34801561016f57600080fd5b506101786103b5565b6040516101859190610d4a565b60405180910390f35b34801561019a57600080fd5b506101b560048036038101906101b09190610ed1565b6103c1565b6040516101c29190610f1f565b60405180910390f35b3480156101d757600080fd5b506101f260048036038101906101ed9190611093565b610408565b005b6101fc6104c8565b005b34801561020a57600080fd5b50610213610637565b6040516102209190611108565b60405180910390f35b34801561023557600080fd5b50610250600480360381019061024b919061117e565b61065f565b005b34801561025e57600080fd5b50610267610732565b6040516102749190610d4a565b60405180910390f35b34801561028957600080fd5b506102a4600480360381019061029f9190611280565b61073c565b6040516102b2929190611363565b60405180910390f35b3480156102c757600080fd5b506102e260048036038101906102dd9190610ed1565b6107e8565b6040516102ef91906113b4565b60405180910390f35b34801561030457600080fd5b5061030d610827565b60405161031a9190610d4a565b60405180910390f35b34801561032f57600080fd5b5061033861084f565b6040516103459190610f1f565b60405180910390f35b60007f0000000000000000000000000000000000000000000000000000000000000000905090565b60007f0000000000000000000000000000000000000000000000000000000000000000905090565b6000600260009054906101000a900460ff16905090565b60008080549050905090565b60008082815481106103d6576103d56113cf565b5b9060005260206000200160009054906101000a900473ffffffffffffffffffffffffffffffffffffffff169050919050565b7f000000000000000000000000000000000000000000000000000000000000000073ffffffffffffffffffffffffffffffffffffffff163373ffffffffffffffffffffffffffffffffffffffff16146104ba57337f00000000000000000000000000000000000000000000000000000000000000006040517f1cf993f40000000000000000000000000000000000000000000000000000000081526004016104b19291906113fe565b60405180910390fd5b6104c48282610879565b5050565b7f0000000000000000000000000000000000000000000000000000000000000000341015610522576040517fa24c020a00000000000000000000000000000000000000000000000000000000815260040160405180910390fd5b6000600181111561053657610535610dff565b5b600260009054906101000a900460ff16600181111561055857610557610dff565b5b1461058f576040517f21025eb500000000000000000000000000000000000000000000000000000000815260040160405180910390fd5b6000339080600181540180825580915050600190039060005260206000200160009091909190916101000a81548173ffffffffffffffffffffffffffffffffffffffff021916908373ffffffffffffffffffffffffffffffffffffffff1602179055503373ffffffffffffffffffffffffffffffffffffffff167f0805e1d667bddb8a95f0f09880cf94f403fb596ce79928d9f29b74203ba284d460405160405180910390a2565b60007f0000000000000000000000000000000000000000000000000000000000000000905090565b60006106796040518060200160405280600081525061073c565b509050806106e85747600080549050600260009054906101000a900460ff1660018111156106aa576106a9610dff565b5b6040517f3a8d60860000000000000000000000000000000000000000000000000000000081526004016106df93929190611427565b60405180910390fd5b7f000000000000000000000000000000000000000000000000000000000000000060015442610717919061148d565b111561072d574260018190555061072c610b25565b5b505050565b6000600154905090565b60006060600080600181111561075557610754610dff565b5b600260009054906101000a900460ff16600181111561077757610776610dff565b5b14905060007f0000000000000000000000000000000000000000000000000000000000000000600154426107ab919061148d565b119050600080600080549050119050600080471190508380156107cb5750825b80156107d45750815b80156107dd5750805b955050505050915091565b600081815481106107f857600080fd5b906000526020600020016000915054906101000a900473ffffffffffffffffffffffffffffffffffffffff1681565b60007f0000000000000000000000000000000000000000000000000000000000000000905090565b6000600260019054906101000a900473ffffffffffffffffffffffffffffffffffffffff16905090565b6000808054905082600081518110610894576108936113cf565b5b60200260200101516108a691906114f0565b9050600081815481106108bc576108bb6113cf565b5b9060005260206000200160009054906101000a900473ffffffffffffffffffffffffffffffffffffffff16600260016101000a81548173ffffffffffffffffffffffffffffffffffffffff021916908373ffffffffffffffffffffffffffffffffffffffff1602179055506000600260019054906101000a900473ffffffffffffffffffffffffffffffffffffffff1673ffffffffffffffffffffffffffffffffffffffff164760405161096f90611552565b60006040518083038185875af1925050503d80600081146109ac576040519150601f19603f3d011682016040523d82523d6000602084013e6109b1565b606091505b50509050806109ec576040517fa1d04b3900000000000000000000000000000000000000000000000000000000815260040160405180910390fd5b600067ffffffffffffffff811115610a0757610a06610f50565b5b604051908082528060200260200182016040528015610a355781602001602082028036833780820191505090505b5060009080519060200190610a4b929190610c8a565b504260018190555060006001811115610a6757610a66610dff565b5b600260009054906101000a900460ff166001811115610a8957610a88610dff565b5b14610aba576000600260006101000a81548160ff02191690836001811115610ab457610ab3610dff565b5b02179055505b600260019054906101000a900473ffffffffffffffffffffffffffffffffffffffff1673ffffffffffffffffffffffffffffffffffffffff167f294199a1df906669a7ed961cc27178df080080aef83ba06a81b3ebc52374ee4960405160405180910390a250505050565b6001600260006101000a81548160ff02191690836001811115610b4b57610b4a610dff565b5b021790555060007f000000000000000000000000000000000000000000000000000000000000000073ffffffffffffffffffffffffffffffffffffffff16635d3b1d307f00000000000000000000000000000000000000000000000000000000000000007f000000000000000000000000000000000000000000000000000000000000000060037f000000000000000000000000000000000000000000000000000000000000000060016040518663ffffffff1660e01b8152600401610c159594939291906115c6565b6020604051808303816000875af1158015610c34573d6000803e3d6000fd5b505050506040513d601f19601f82011682018060405250810190610c58919061162e565b9050807fed78291397f3061d19ba61a10be233e58e9e0ff8d4ce49da9dfe865239264f6460405160405180910390a250565b828054828255906000526020600020908101928215610d03579160200282015b82811115610d025782518260006101000a81548173ffffffffffffffffffffffffffffffffffffffff021916908373ffffffffffffffffffffffffffffffffffffffff16021790555091602001919060010190610caa565b5b509050610d109190610d14565b5090565b5b80821115610d2d576000816000905550600101610d15565b5090565b6000819050919050565b610d4481610d31565b82525050565b6000602082019050610d5f6000830184610d3b565b92915050565b600073ffffffffffffffffffffffffffffffffffffffff82169050919050565b6000819050919050565b6000610daa610da5610da084610d65565b610d85565b610d65565b9050919050565b6000610dbc82610d8f565b9050919050565b6000610dce82610db1565b9050919050565b610dde81610dc3565b82525050565b6000602082019050610df96000830184610dd5565b92915050565b7f4e487b7100000000000000000000000000000000000000000000000000000000600052602160045260246000fd5b60028110610e3f57610e3e610dff565b5b50565b6000819050610e5082610e2e565b919050565b6000610e6082610e42565b9050919050565b610e7081610e55565b82525050565b6000602082019050610e8b6000830184610e67565b92915050565b6000604051905090565b600080fd5b600080fd5b610eae81610d31565b8114610eb957600080fd5b50565b600081359050610ecb81610ea5565b92915050565b600060208284031215610ee757610ee6610e9b565b5b6000610ef584828501610ebc565b91505092915050565b6000610f0982610d65565b9050919050565b610f1981610efe565b82525050565b6000602082019050610f346000830184610f10565b92915050565b600080fd5b6000601f19601f8301169050919050565b7f4e487b7100000000000000000000000000000000000000000000000000000000600052604160045260246000fd5b610f8882610f3f565b810181811067ffffffffffffffff82111715610fa757610fa6610f50565b5b80604052505050565b6000610fba610e91565b9050610fc68282610f7f565b919050565b600067ffffffffffffffff821115610fe657610fe5610f50565b5b602082029050602081019050919050565b600080fd5b600061100f61100a84610fcb565b610fb0565b9050808382526020820190506020840283018581111561103257611031610ff7565b5b835b8181101561105b57806110478882610ebc565b845260208401935050602081019050611034565b5050509392505050565b600082601f83011261107a57611079610f3a565b5b813561108a848260208601610ffc565b91505092915050565b600080604083850312156110aa576110a9610e9b565b5b60006110b885828601610ebc565b925050602083013567ffffffffffffffff8111156110d9576110d8610ea0565b5b6110e585828601611065565b9150509250929050565b6000819050919050565b611102816110ef565b82525050565b600060208201905061111d60008301846110f9565b92915050565b600080fd5b60008083601f84011261113e5761113d610f3a565b5b8235905067ffffffffffffffff81111561115b5761115a611123565b5b60208301915083600182028301111561117757611176610ff7565b5b9250929050565b6000806020838503121561119557611194610e9b565b5b600083013567ffffffffffffffff8111156111b3576111b2610ea0565b5b6111bf85828601611128565b92509250509250929050565b600080fd5b600067ffffffffffffffff8211156111eb576111ea610f50565b5b6111f482610f3f565b9050602081019050919050565b82818337600083830152505050565b600061122361121e846111d0565b610fb0565b90508281526020810184848401111561123f5761123e6111cb565b5b61124a848285611201565b509392505050565b600082601f83011261126757611266610f3a565b5b8135611277848260208601611210565b91505092915050565b60006020828403121561129657611295610e9b565b5b600082013567ffffffffffffffff8111156112b4576112b3610ea0565b5b6112c084828501611252565b91505092915050565b60008115159050919050565b6112de816112c9565b82525050565b600081519050919050565b600082825260208201905092915050565b60005b8381101561131e578082015181840152602081019050611303565b60008484015250505050565b6000611335826112e4565b61133f81856112ef565b935061134f818560208601611300565b61135881610f3f565b840191505092915050565b600060408201905061137860008301856112d5565b818103602083015261138a818461132a565b90509392505050565b600061139e82610d65565b9050919050565b6113ae81611393565b82525050565b60006020820190506113c960008301846113a5565b92915050565b7f4e487b7100000000000000000000000000000000000000000000000000000000600052603260045260246000fd5b60006040820190506114136000830185610f10565b6114206020830184610f10565b9392505050565b600060608201905061143c6000830186610d3b565b6114496020830185610d3b565b6114566040830184610d3b565b949350505050565b7f4e487b7100000000000000000000000000000000000000000000000000000000600052601160045260246000fd5b600061149882610d31565b91506114a383610d31565b92508282039050818111156114bb576114ba61145e565b5b92915050565b7f4e487b7100000000000000000000000000000000000000000000000000000000600052601260045260246000fd5b60006114fb82610d31565b915061150683610d31565b925082611516576115156114c1565b5b828206905092915050565b600081905092915050565b50565b600061153c600083611521565b91506115478261152c565b600082019050919050565b600061155d8261152f565b9150819050919050565b600067ffffffffffffffff82169050919050565b61158481611567565b82525050565b600061ffff82169050919050565b6115a18161158a565b82525050565b600063ffffffff82169050919050565b6115c0816115a7565b82525050565b600060a0820190506115db60008301886110f9565b6115e8602083018761157b565b6115f56040830186611598565b61160260608301856115b7565b61160f60808301846115b7565b9695505050505050565b60008151905061162881610ea5565b92915050565b60006020828403121561164457611643610e9b565b5b600061165284828501611619565b9150509291505056fea2646970667358221220ebc7aa1ffff2505ed3a5ac35c5ea840d86df12575a28857ecb5a5ce7073531ee64736f6c63430008120033",
  "devdoc": {
    "author": "ejmorian",
    "details": "this implements chainlink VRFV2 and chainlink keepers",
    "kind": "dev",
    "methods": {},
    "title": "A Sample Raffle Contract",
    "version": 1
  },
  "userdoc": {
    "kind": "user",
    "methods": {
      "constructor": {
        "notice": "Functions "
      },
      "getEntranceFee()": {
        "notice": "pure/view "
      }
    },
    "notice": "This contract is for creating a untamperable decentralise smart contracts",
    "version": 1
  },
  "storageLayout": {
    "storage": [
      {
        "astId": 242,
        "contract": "contracts/Raffle.sol:Raffle",
        "label": "s_participants",
        "offset": 0,
        "slot": "0",
        "type": "t_array(t_address_payable)dyn_storage"
      },
      {
        "astId": 244,
        "contract": "contracts/Raffle.sol:Raffle",
        "label": "s_previousTimestamp",
        "offset": 0,
        "slot": "1",
        "type": "t_uint256"
      },
      {
        "astId": 247,
        "contract": "contracts/Raffle.sol:Raffle",
        "label": "s_raffleState",
        "offset": 0,
        "slot": "2",
        "type": "t_enum(RaffleState)239"
      },
      {
        "astId": 249,
        "contract": "contracts/Raffle.sol:Raffle",
        "label": "s_winner",
        "offset": 1,
        "slot": "2",
        "type": "t_address"
      }
    ],
    "types": {
      "t_address": {
        "encoding": "inplace",
        "label": "address",
        "numberOfBytes": "20"
      },
      "t_address_payable": {
        "encoding": "inplace",
        "label": "address payable",
        "numberOfBytes": "20"
      },
      "t_array(t_address_payable)dyn_storage": {
        "base": "t_address_payable",
        "encoding": "dynamic_array",
        "label": "address payable[]",
        "numberOfBytes": "32"
      },
      "t_enum(RaffleState)239": {
        "encoding": "inplace",
        "label": "enum Raffle.RaffleState",
        "numberOfBytes": "1"
      },
      "t_uint256": {
        "encoding": "inplace",
        "label": "uint256",
        "numberOfBytes": "32"
      }
    }
  }
}